S01B0000574946492D73696D706C654765742D455854312E73726563B4
S21440000060EB4020F5544000F3544000F354400069
S214400010F3544000F3544000F35440000000000006
S21440002000000000000000000000000071074000D3
S214400030F354400000000000CD0740003508400063
S214400040F3544000F3544000E55C4000F354400055
S214400050F3544000F3544000F3544000F35440003F
S214400060F3544000000000000D5040002150400076
S21440007035504000F3544000F3544000F3544000E1
S214400080495040005D504000F3544000F354400057
S214400090F3544000F3544000F3544000F3544000FF
S2144000A0F3544000F3544000F3544000F3544000EF
S2144000B0F354400021044000F3544000F354400001
S2144000C0F3544000F3544000F3544000F3544000CF
S2144000D000000000F354400000000000F3544000CD
S2144000E035044000F3544000F3544000F3544000BD
S2144000F0F3544000F3544000F3544000F35440009F
S214400100F3544000F3544000F3544000F35440008E
S214400110F354400000000000000000000000000013
S214400120F3544000F3544000F3544000F35440006E
S214400130F354400000000000F3544000F3544000E5
S21440014010B5054C237833B9044B13B10448AFF3CC
S21440015000800123237010BDD80940200000000015
S21440016074D840000C4B43B10C480D4910B5AFF362
S21440017000800C48036823B910BD0A48036833B9A9
S2144001807047094B002BF7D0BDE810401847064B88
S214400190002BF5D0184700BF0000000074D8400080
S2144001A0DC09402074D840000000000070B582B0E2
S2144001B0026BC36A1340019300241C4E1C4DA84298
S2144001C014BF0020012005010BE00E2C1ED8019A1A
S2144001D004F10C0101238B40134210D10134102C42
S2144001E022D00B2CF1D8019A0123A3401342F5D01C
S2144001F02B1956F82330002BF0D09847EEE72B19F2
S21440020056F82330002BE9D09847E7E7019A04F1E7
S2144002100F0101238B401342E0D02B1956F82330B0
S214400220002BDBD09847D9E702B070BDA0C940206C
S2144002300040064030B4046E01238B4024EA030499
S2144002401578002D08BF002323430366446D4B00FA
S2144002500321994024EA010451789940214341659D
S21440026030BC70474B780A78134303678A884B88BC
S21440027043EA02434367704700220260084B4360EC
S214400280084B83604FF48023C3600223037401232A
S21440029043748374C274037543758375704700BF97
S2144002A000A3E111808D5B0000230370012343709F
S2144002B070470023037020234370FF23438040F69B
S2144002C0FF73838070470000026B12F0807201D08B
S2144002D01920704710B401230360CB7C002B18BF55
S2144002E04FF000424B688C68B3FBF4F3013B1B02B3
S2144002F09BB2CC6844F4000423430C7C240604F0F0
S214400300706423434C7C240704F040542343134337
S21440031043600B7D002B14BF4FF0807300230A68A8
S21440032013434A7D002A14BF4FF000720022134345
S21440033083608B7D1B0203F4407343F00C03C0F8CC
S21440034094300F4B984206D00E4B98420DD000206A
S2144003505DF8044B70470C4B03F14001002243F814
S214400360042F8B42FBD10020F2E7084B03F14001FB
S214400370002243F8042B8B42FBD10020E8E700BF65
S21440038000C00340004006409CC94020E0C94020D1
S2144003900C4B994207D00B290BD806D0012303FA01
S2144003A001F141627047436270474FF40063436215
S2144003B070470E2994BF0C310F31012303FA01F127
S2144003C041627047FF0F004738B5114CA0420CBF42
S2144003D0102400240C440F4D45F824200AD10E4A20
S2144003E04FF48074C2F884415B01DBB282F8283354
S2144003F0546009E0084A4FF00054C2F880415B015F
S214400400DBB282F81D331460044B984738BD00BFFA
S21440041000400640A0C9402000E100E091034000B3
S21440042008B50248024B984708BD00BF00C00340CD
S214400430AD01400008B50248024B984708BD00BFD2
S21440044000400640AD01400000B583B0134B9842D3
S2144004500CBF28201D20124B9847124B9B78FF2B31
S2144004601AD0EFF31083B3FA83F35B09019372B6A5
S214400470BFF35F8F00220C4B1A700199094A93789C
S2144004800133937029B10122074B1A70BFF35F8F77
S21440049062B603B05DF804FBFEE700BF00400640CE
S2144004A01552400098C940201800402021B94368A2
S2144004B023F0010343607047436843F00103436001
S2144004C070470162704730B485688468A54203D09F
S2144004D085688468AC42FBD161B1C4F3015000EB3F
S2144004E08005C4F3034000EB450014F4800F18BFAA
S2144004F00C30086042B1C4F3023101EB8101C4F311
S214400500032000EB4101116043B1C4F3021202EB39
S214400510820204F00F0404EB42041C6030BC7047B7
S214400520F0B4446814F0010F05D00C2903D90C39F7
S2144005304FF4800700E000271C4CA4FB0356F60847
S21440054006EB8605A3EB450343EA0613A4FB0265C8
S214400550ED0843EA053305EB8505A2EB450543EA7E
S21440056005233B43A4FB0142D20843EA025302EB75
S2144005708202A1EB420143EA0141836913F0040F72
S214400580FBD0036843F001030360836913F0010F57
S214400590FBD00123C3618160036823F0010303603D
S2144005A0C06A00F00100F0BC704700BFCDCCCCCC98
S2144005B070B42A4DA5FB0346F608039C640544EA3E
S2144005C0067406EB8606A3EB460344EA0363A5FBE4
S2144005D00264E40843EA045304EB8404A2EB4402B6
S2144005E043EA02421E4BA3FB01439B0942EA031225
S2144005F01C4BA3FB01435B09A5FB0364E40804EB27
S2144006008404A3EB44031A43A5FB0143DB0803EB36
S2144006108304A1EB440142EA0122A5FB0315ED0841
S21440062005EB8505A3EB450542EA0532836913F0E1
S214400630040FFBD0036843F002030360836913F0A2
S214400640010FFBD00123C361C260036823F002039D
S2144006500360C06A00F0020070BC7047CDCCCCCCC2
S214400660D34D62101F85EB5180697047C16170475A
S21440067000F1080343604FF0FF328260C3600361BD
S21440068000230360704700230361704743684B6054
S2144006909A688A609A685160996008610368013375
S2144006A00360704730B40D68B5F1FF3F02D000F1EB
S2144006B0080202E0026904E01A4653681C68A54234
S2144006C0FAD253684B6099608A605160086103684B
S2144006D00133036030BC70470369426881689160AB
S2144006E08268416851605A68904205D00022026193
S2144006F0186801381860704782685A60F6E74FF00D
S214400700800372B683F31188BFF36F8FBFF34F8FAA
S21440071062B6FEE706480068006880F3088862B65E
S21440072061B6BFF34F8FBFF36F8F00DF00BF00008F
S21440073008ED00E0DFF80C00016841F4700101604C
S2144007407047000088ED00E04FF0807340F8043CAE
S21440075040F8081C054B40F80C3C40F8202C6FF045
S214400760020340F8243C4438704700BFFF06400070
S214400770064B19680868B0E8F04F80F30988BFF365
S2144007806F8F4FF0000080F311887047FCC1402007
S214400790704700BF4FF0800372B683F31188BFF3F3
S2144007A06F8FBFF34F8F62B6024A136801331360F0
S2144007B0704700BF0C004020034A1368013B13609B
S2144007C00BB983F3118870470C004020EFF3098083
S2144007D0BFF36F8F154B1A681EF0100F08BF20ED41
S2144007E0108A20E9F04F10604DF8043D4FF080002D
S2144007F072B680F31188BFF34F8FBFF36F8F62B628
S21440080000F07CFF4FF0000080F3118808BC1968A8
S2144008100868B0E8F04F1EF0100F08BFB0EC108A22
S21440082080F30988BFF36F8F704700BFFCC140203C
S214400830704700BF08B5EFF311834FF0800272B6E1
S21440084082F31188BFF36F8FBFF34F8F62B6054BAD
S214400850984718B14FF08052034B1A60002383F339
S214400860118808BDBD13400004ED00E0034A044B68
S2144008701A600722043B1A60704700BFBF27090072
S21440088014E000E008B50C4B1A6842F460021A60A7
S2144008901A6842F060421A60084B98470022084B9C
S2144008A01A60084B9847084A136843F04043136061
S2144008B0064B9847064B984720ED00E06D084000F1
S2144008C00C0040203507400034EF00E0150740009C
S2144008D0FF06400038B5044610F0070F02D020F05F
S2144008E007040834114B9847114B1B6893B1114BC2
S2144008F01B681C44A34213D24BF2F77294420FD8A3
S2144009000B4A15681D440B4B1C600B4B98474DB16A
S214400910284638BD094B23F00703054A1360E6E72F
S214400920054B9847064B98470025F1E7A113400032
S214400930F4094020F8C14020F5144000000A402049
S214400940B35E40007047000038B504461546026C5A
S21440095062B9036823B10020A36B0133A36338BD9B
S2144009604068184B984700236360F5E76DB9806888
S214400970154B9847A368226C1344A3606268934261
S2144009801CD32368A3600020E6E7C0680E4B984758
S214400990226C5242E3681344E36021688B4202D2E1
S2144009A063681A44E260022D01D00020D4E7A36BAE
S2144009B033B1A36B013BA3630020CDE70020CBE718
S2144009C00020C9E74D1A40004562400030B583B06C
S2144009D00190446DA26BE36B9A4203D300252846F0
S2144009E003B030BD0A4601A920460B4B9847054642
S2144009F0A36CB3F1FF3F03D0A36C0133A364EEE7CF
S214400A00636A002BEBD004F12400044B984700287F
S214400A1018BF0125E3E700BF4909400081184000A0
S214400A20026C72B110B5C3681344C3604468A342F5
S214400A3001D30368C3600C46C1682046014B984703
S214400A4010BD704745624000F8B50446224B9847B3
S214400A50A36C002B1BDD214D214F224E0BE0636A19
S214400A60ABB104F12400B04778B9A36C013BA36452
S214400A70A36C002B0BDD636D002BF0D000212046CD
S214400A80A8470128F1D1B847EFE7B847EDE74FF060
S214400A90FF33A364144B98470F4B9847636C002B67
S214400AA014DD236993B104F110060E4D0C4F07E098
S214400AB0636C013B6364636C002B07DD23692BB1D9
S214400AC03046A8470028F3D0B847F1E74FF0FF3349
S214400AD06364054B9847F8BD95074000CD09400034
S214400AE07D19400081184000B907400038B50446DB
S214400AF00D46184B98472268216CE36B03FB01F3C5
S214400B00D01860600020A063A2605B1A1344E360C4
S214400B104FF0FF336364A364A5B923691BB90E4B3A
S214400B209847012038BD04F110000C4B9847012827
S214400B30F5D14FF080520A4B1A60BFF34F8FBFF388
S214400B406F8FECE704F11000064DA84704F124002F
S214400B50A847E4E795074000B907400081184000E1
S214400B6004ED00E071064000F8B5054617460E460F
S214400B7059B100FB01F059300D4B9847044618B167
S214400B8000F15803036006E0F8BD5820084B98472C
S214400B90044660B12460E563266401212046054B87
S214400BA0984784F85070002363652046F8BDF8BD2A
S214400BB0D5084000ED0A40002DE9F04F85B00446C8
S214400BC08A4601921F4600264A4DDFF85481DFF8D8
S214400BD034914AE03A4651462046474B9847636D23
S214400BE0A3B139462046454B9847012805D0444B8B
S214400BF09847012005B0BDE8F08F4FF08052414B3A
S214400C001A60BFF34F8FBFF36F8FF0E7636A53B935
S214400C100028ECD04FF080523A4B1A60BFF34F8F0B
S214400C20BFF36F8FE3E704F12400374B9847012862
S214400C30DDD14FF08052334B1A60BFF34F8FBFF376
S214400C406F8FD4E72E4B98470020D3E702A8C047C3
S214400C5017E0002363641DE00023A3641EE02046E3
S214400C602A4B98472A4B98470126A847A26BE36B26
S214400C709A42AFD3022FADD0019B002BE2D0002E7C
S214400C80E4D01F4B9847234B9847A847636CB3F173
S214400C90FF3FDED0A36CB3F1FF3FDDD0184B984743
S214400CA001A902A81C4B9847E0B9A847D4F838B029
S214400CB0E66B134B9847B345D1D1019904F1100028
S214400CC0164B98472046114B9847114B984700289B
S214400CD0CAD14FF08053C9F80030BFF34F8FBFF3EF
S214400CE06F8FC1E72046094B9847094B984700202D
S214400CF080E700BF9507400049094000CD09400005
S214400D00B907400004ED00E081184000490A400061
S214400D10F5144000A113400019194000AD174000DB
S214400D2001194000F8B5EFF311874FF0800472B612
S214400D3084F31188BFF36F8FBFF34F8F62B6856B16
S214400D40C46BA54205D3022B03D0002087F311883D
S214400D50F8BD1D46164604461A46134B9847A36CE4
S214400D60B3F1FF3F04D0A36C0133A3640120EDE749
S214400D70636D43B1294620460C4B984786B10128FF
S214400D800ED13060E2E7636A0BB90120DEE704F17A
S214400D902400074B98472EB120B101203060D5E79C
S214400DA00120D3E70120D1E749094000CD094000A2
S214400DB08118400038B5EFF311844FF0800372B6C7
S214400DC083F31188BFF36F8FBFF34F8F62B6826B8A
S214400DD0C36B9A4224D2836B01338363836CB3F133
S214400DE0FF3F06D0836C01338364012084F311886F
S214400DF038BD0D46436D3BB100210C4B98478DB135
S214400E0001280FD12860F1E7436A0BB90120EDE7CE
S214400E102430074B98473DB130B101202860E5E7C4
S214400E200020E3E70120E1E70120DFE7CD094000AD
S214400E30811840002DE9F04784B004468A46019266
S214400E40994600264D4DDFF864814D4F54E0E568E5
S214400E50514620464B4B9847B9F1000F1FD1A36B24
S214400E60013BA36323683BB123694BB9464B984784
S214400E70012004B0BDE8F087444B98476060F3E734
S214400E8004F11000424B98470128EFD14FF08052B2
S214400E903B4B1A60BFF34F8FBFF36F8FE6E7E560BB
S214400EA0636A002BE2D004F12400394B98470028AF
S214400EB0DCD04FF08052324B1A60BFF34F8FBFF3F7
S214400EC06F8FD3E7304B98470020D2E702A8C04741
S214400ED01BE00023636421E00023A36422E0A847CC
S214400EE060682C4B9847284B98472BE020462A4B67
S214400EF098472A4B98470126A847A36B002BA6D1B4
S214400F00019B002BDED0002EE0D01F4B9847244B91
S214400F109847A847636CB3F1FF3FDAD0A36CB3F1B0
S214400F20FF3FD9D0184B984701A902A81D4B9847B8
S214400F30E0B9A847A66B144B9847002ED6D1236835
S214400F40002BCCD0019904F12400174B984720463B
S214400F50114B9847114B98470028CCD14FF08053FF
S214400F603B60BFF34F8FBFF36F8FC4E720460A4BFB
S214400F7098470A4B984700207BE700BF95074000FC
S214400F8004ED00E0210A4000B9074000D11A4000B5
S214400F9081184000A9194000490A4000F514400055
S214400FA0A113400019194000AD1740000119400038
S214400FB070B5EFF311854FF0800372B683F3118856
S214400FC0BFF36F8FBFF34F8F62B6836B1BB90020A2
S214400FD085F3118870BD164604460E4B9847A36BA2
S214400FE0013BA363636CB3F1FF3F04D0636C0133F2
S214400FF063640120ECE723690BB90120E8E704F1BC
S2144010001000054B98471EB110B101203060DFE755
S2144010100120DDE7210A40008118400010B40B4B48
S2144010201B6853B10123094C54F8332032B10133C5
S214401030082BF9D15DF8044B70470023034A42F869
S214401040331002EBC3035860F4E700BF20CA4020C9
S21440105070B504460D4616460F4B9847636CB3F181
S214401060FF3F0BD0A36CB3F1FF3F0AD00B4B984722
S214401070A36B4BB120460A4B984770BD0023636470
S214401080F0E70023A364F1E73246294604F1240042
S214401090044B9847EEE700BF95074000B90740006D
S2144010A0490A400019184000084B1B681B683BB1B2
S2144010B0064B1B68DB68DB685A68054B1A6070474E
S2144010C04FF0FF32024B1A60704700BF00C240200C
S2144010D0ACC2402010B50F4B1B6858600E4B1B68C7
S2144010E098420ED304460D4B18680A4B19680431D3
S2144010F00B4B98470B4B1B689C4201D2094B1C601C
S21440110010BD094B1868034B19680431044B9847C7
S21440111010BD00BFFCC14020F4C2402000C24020A9
S214401120A5064000ACC2402004C240202DE9F04F46
S21440113083B000900E4617460193DDF830B0DDF8D8
S21440114034A00E9D002D00F0898058205F4B9847B4
S2144011500446002800F088800563BA00A52128468A
S2144011605B4B98476FF040433B44256B05EB83054C
S21440117025F00705337884F8343033785BB133464E
S21440118004F134020936597802F8011F13F8011F9A
S21440119009B1B342F7D1002784F83D705E46042E6D
S2144011A028BF0426E662A664E76404F104084046C5
S2144011B0DFF87091C84704F11800C8472461C6F1AB
S2144011C00506A6616462276584F85470019A009902
S2144011D02846404B98472060BAF1000F01D0CAF825
S2144011E000403D4B98473D4A1368013313603C4BE3
S2144011F01B68002B3ED03B4B1B6833B9384B1B68F3
S214401200DB6A9B4501D3364B1C60374A1368013373
S21440121013602364E06A354A1168012383400B4318
S214401220136000EB80004146314B03EB8000314BAE
S2144012309847314B98472B4B1B68002B40D0284B88
S2144012401B68DB6A9B453FD94FF080522B4B1A6098
S214401250BFF34F8FBFF36F8F012032E090001B4BE0
S2144012609847054618B170E72846254B98474FF0F3
S214401270FF3026E01A4B1C601368012BC5D11C4E6C
S2144012803046204DA84706F11400A84706F128002E
S214401290A84706F13C00A84706F15000A8471A4F59
S2144012A03846A847194E3046A8471948A84719480F
S2144012B0A8471948A847194B1F60194B1E60A4E75A
S2144012C0012003B0BDE8F08F0120FAE7D5084000C2
S2144012D07963400049074000950740006CC24020B3
S2144012E0FCC14020C8C2402078C2402080C2402076
S2144012F008C240208D064000B907400004ED00E0DB
S214401300450940007106400084C2402098C24020F3
S214401310B4C24020E0C24020CCC2402000C24020A0
S21440132004C240208706400010B584B000230393D3
S214401330029301930093822211491248124CA0470F
S214401340012801D004B010BD104B98470128F9D1B0
S2144013504FF0800372B683F31188BFF36F8FBFF3ED
S2144013604F8F62B64FF0FF32094B1A600122094B8D
S2144013701A600022084B1A60084B9847E2E700BF05
S214401380F4C54000651640002D114000A91B4000E2
S214401390ACC24020C8C24020F4C24020850840006D
S2144013A0024A136801331360704700BF74C240207E
S2144013B0014B1868704700BFF4C240202DE9F04743
S2144013C03D4B1B68002B6ED13C4B1A6801321A60AD
S2144013D0D3F800A0BAF1000F1BD0394B1B689A45D2
S2144013E024D20026374B1B68DB6A03EB8303364A5E
S2144013F052F82330022B28BF0126344B1B68002BA3
S2144014004ED0334B1B68002B0CBF30460120BDE846
S214401410F087304A1168304B1868106019602F4AC0
S2144014201368013313602E4B9847D6E70026294FA2
S214401430DFF8B890DFF8B88021E04FF0FF32204B5D
S2144014401A60CFE71E4A1360CCE704F11800C8477D
S214401450E06AD8F80020012383401343C8F80030E0
S21440146000EB80002946184B03EB80001D4B984745
S214401470144B1B68E26ADB6A9A4228BF01263B6827
S2144014801B68002BD9D03B68DB68DC6863689A45EC
S214401490D8D3251D2846C847A36A002BD5D1D7E701
S2144014A0114B9847ADE7094A1368013313600E4B5A
S2144014B098470026A5E700BF74C24020F4C24020EB
S2144014C0ACC24020FCC1402008C2402070C2402030
S2144014D0F8C2402000C2402004C24020B0C2402093
S2144014E0A91040008D064000B15E4000D90640007D
S2144014F080C240202DE9F8432F4B98472F4B1A685F
S214401500013A1A601B68002B50D12D4B1B6833B331
S2144015102C4EDFF8D4802C4FDFF8D090336803B3DE
S214401520F368DC6804F11800C047251D2846C0470C
S214401530E06A3A680123834013433B6000EB800037
S214401540294609EB8000214B9847214B1B68E26AED
S214401550DB6A9A42E2D301221E4B1A60DEE7002481
S21440156025E01D4B1B688BB11B4B1B6873B11B4D95
S214401570184E194C04E02368013B236023682BB1C6
S214401580A8470028F7D001233360F4E7114B1B68C7
S214401590012B01D000240AE04FF08052104B1A6015
S2144015A0BFF34F8FBFF36F8F012400E000240D4B35
S2144015B098472046BDE8F8839507400074C240200F
S2144015C06CC24020B4C2402080C240208D064000FD
S2144015D0FCC14020F8C2402070C24020BD134000ED
S2144015E004ED00E0B9074000D906400008C240209C
S2144015F010B540B94FF08052124B1A60BFF34F8F70
S214401600BFF36F8F10BD04460F4B98470F4B1B68B8
S2144016101C440F4B186804300E4B984748B90C4B87
S2144016201A680D490B68D06A0122824023EA0203F9
S2144016300B602046094B9847094B98470028E1D154
S214401640D8E700BF04ED00E0A1134000F4C24020FC
S214401650FCC14020D906400080C24020D510400042
S214401660F514400080B5DFF88880194EDFF8849086
S2144016702AE0184B1B68012B1ED82B68002BF8D08D
S214401680C0473468B847002CF7D0134B9847F368E8
S214401690DC68201D114B9847114A1368013B1360C4
S2144016A02B68013B2B600F4B9847206BDFF848A018
S2144016B0D0472046D047E0E74FF08053C9F8003087
S2144016C0BFF34F8FBFF36F8F074D084FD5E700BF6F
S2144016D0E0C2402008C2402095074000D90640009E
S2144016E06CC24020B90740007CC24020F514400040
S2144016F0A113400004ED00E045094000254B1B685F
S214401700002B2ED110B50022234B1A60234B1B68AA
S2144017101B6B1A68B2F1A53F27D0204B1868196892
S21440172034311F4B98471F4B1B68B3FA83F3DBB229
S214401730C3F11F031C4A9900C81802EB8000446896
S2144017406468446019440246083294421AD003EB57
S2144017508303154A02EB83035B68DA680F4B1A6013
S21440176010BD01220C4B1A6070475A68B2F1A53F73
S214401770D3D19A68B2F1A53FCFD1DB68B3F1A53F8C
S214401780CBD1D0E760680A46074901EB8202506039
S214401790DDE700BF74C24020F8C24020FCC14020B4
S2144017A0995E400080C2402008C2402038B50D46B1
S2144017B0114C21681831114B984720680430104B63
S2144017C0984740B922680F490B68D06A0122824088
S2144017D023EA02030B60B5F1FF3F05D00A4B1868B9
S2144017E028440A4B984738BD034B196804310848CB
S2144017F0084B984738BD00BFFCC14020A5064000B6
S214401800D906400080C24020F4C24020D510400097
S214401810CCC240208D06400070B50E461546114C91
S21440182021681831104B9847206804300F4B984772
S21440183040B922680E490B68D06A0122824023EAEA
S21440184002030B60012D05D00A4B186830440A4B42
S214401850984770BD034B196804310848024B9847B7
S21440186070BD00BFFCC140208D064000D906400038
S21440187080C24020F4C24020D5104000CCC2402058
S21440188038B5C368DC6804F118052846144B9847F9
S214401890144B1B68E3B9251D2846114B9847E06A50
S2144018A0114A1168012383400B43136000EB80000C
S2144018B029460E4B03EB80000D4B98470D4B1B689B
S2144018C0E26ADB6A9A4208D901200B4B186038BDA1
S2144018D029460A48064B9847F0E7002038BD00BF27
S2144018E0D906400074C2402080C2402008C2402032
S2144018F08D064000FCC14020F8C24020B4C24020C3
S214401900034B1B680360034B1B684360704700BF74
S214401910B0C24020F4C2402038B504460D46124BB3
S2144019209847124B1A682B68B3F1FF3F18D01049FE
S21440193009682068884202D061688A4212D261688B
S214401940501A834204D801240A4B9847204638BD93
S2144019508A1A13442B602046074B98470024F3E727
S2144019600024F1E70124EFE795074000F4C2402049
S214401970B0C24020B9074000011940000122014B87
S2144019801A607047F8C24020054B1B6833B1054BC0
S2144019901B68002B0CBF02200020704701207047B8
S2144019A0C8C2402074C24020002844D038B50446FF
S2144019B0C26A21490968C96A8A4214D281690029E3
S2144019C005DB1D490968C96AC1F10501816102EB61
S2144019D082021A4901EB82026169914204D0164A9A
S2144019E01268D26AE26238BD251D2846144B9847D5
S2144019F070B9E36A03EB8301104A52F821203AB9E2
S214401A0010480268012101FA03F322EA0303036047
S214401A10094B1B68D86AE0620A4A11680123834072
S214401A200B43136000EB80002946044B03EB800019
S214401A30054B984738BD7047FCC1402008C240203F
S214401A40D906400080C240208D064000002833D092
S214401A5038B50446C26C013AC264C06AA16C88427A
S214401A602CD05ABB251D2846154B984770B9E36ABB
S214401A7003EB8301134A52F821203AB91248026810
S214401A80012101FA03F322EA03030360A06CE0623B
S214401A90C0F10503A3610C4A1168012404FA00F35F
S214401AA00B43136000EB80002946064B03EB800097
S214401AB0064B9847204638BD00207047002038BD6A
S214401AC0D906400008C2402080C240208D06400013
S214401AD0054B1B6823B1044B1A68D36C0133D3649F
S214401AE0014B1868704700BFFCC1402008B54160F4
S214401AF0006191420CD8D21A83699A4201D30120E0
S214401B0008BD011D094B1868094B9847002008BDC1
S214401B109A4203D2994201D3012008BD011D054BCC
S214401B201868034B9847002008BD00BF00C34020FC
S214401B30A5064000FCC2402070B5104B9847104B9D
S214401B401B6813B10F4B984770BD0F4D28460F4E7C
S214401B50B0470F4C2046B0470E4B1D600E4B1C60E6
S214401B600022102105200D4B9847054B1860002891
S214401B70E8D00B490B4B9847E4E700BF9507400079
S214401B8030C34020B907400004C3402071064000DF
S214401B9018C34020FCC2402000C34020690B4000D0
S214401BA0FCC540001D10400010B584B00A4B984755
S214401BB00A4B1B686BB100230393029301930422E4
S214401BC000924FF4827206490648074CA04704B07C
S214401BD010BD0020FBE700BF391B400030C340204B
S214401BE004C64000E91C40002D11400030B585B0C9
S214401BF0104C2568DDB11C460091019202900529E3
S214401C000EDC0D4B984702284FF000030CBF089A95
S214401C101A46694607480068084CA04705B030BDDC
S214401C200023224669462846054CA047F6E7002092
S214401C30F4E700BF30C3402089194000B90B40008C
S214401C40250D40002DE9F04782B080461F4B98474F
S214401C5007461F4B1B68984210D30023C8F8003035
S214401C601B4B1F60384602B0BDE8F087002100914C
S214401C700B4652462046174CA04701E0164D174EDD
S214401C802B681A68C2B1DB68D3F800A0DC6804F1A0
S214401C9004094846B047636A20469847E369012BE3
S214401CA0EED1A36953449A45E0D263602461494625
S214401CB028680B4B9847E3E70A4A106806490860CD
S214401CC013600123C8F80030CAE700BFB1134000D4
S214401CD02CC34020ED1B4000FCC24020D9064000EB
S214401CE0A506400000C340202DE9F04F89B0634E62
S214401CF0634F644DDFF8B091DFF8B08133681A68FF
S214401D00002A00F0A980DB68D3F800A0B84704A8F2
S214401D105D4B98470446049B002B37D1504511D263
S214401D200022AAEB04012868584B9847584B98471E
S214401D3070BB4FF08053C9F80030BFF34F8FBFF3EE
S214401D406F8F25E0524B98473368DB68D3F80CB06A
S214401D500BF10400C047DBF81C30012B04D0DBF845
S214401D6024305846984713E0DBF81810534622466E
S214401D7051445846474CA0470128F0D100210091D5
S214401D800B4652465846444CA047E8E7404B9847D7
S214401D90424C06E007990698059B9847049B002B03
S214401DA009DA00231A4604A92868A0470028A5D0C7
S214401DB0049B002BEEDBDDF818A0DAF8143013B1E4
S214401DC00AF10400C04703A82F4B9847049B092BF1
S214401DD0E7D801A252F823F0011E4000011E400041
S214401DE0011E4000A31D40003D1E4000511E400005
S214401DF0011E4000011E4000A31D40003D1E400045
S214401E00059CDAF818102346024621445046214CD9
S214401E10A0470128BCD1DAF8243050469847DAF873
S214401E201C30012BB4D1DAF81820002100910B4663
S214401E30059802445046184CA047A9E70599CAF8A9
S214401E4018100346024601445046124CA0479FE7EE
S214401E505046134B98479BE7B84704A80A4B984709
S214401E600446049B002B91D10E4B1B681A68B2FAAD
S214401E7082F252094FF0000A53E700BFFCC24020EE
S214401E80A113400030C34020451C40005110400084
S214401E90F5144000ED1A4000ED1B4000350E4000A2
S214401EA04509400000C3402004ED00E0D90640004C
S214401EB0102808D1B1F1805F05D108B5024B1B68E8
S214401EC003B1984708BD704734C3402050B170B541
S214401ED0441E054E054D3046A847013CB4F1FF3F31
S214401EE0F9D170BD704700BF351603000100402091
S214401EF02DE9F041094F4FF40038C7F83480084DBB
S214401F0008266E636420074CA047C7F830806420DC
S214401F10A0472E636420A047BDE8F08100120E4023
S214401F2000100E40CD1E400010B50022144B1A6023
S214401F300A20144CA0470B20A0470C20A047102096
S214401F40A0471120A047104B08221A61C3F8A020D2
S214401F501A630E4A4FF400311161C2F8A0101163A3
S214401F6004221A61C3F8A0201A63094B1B6813F0B9
S214401F70010F01D0064B1B68064B9847002010BD4A
S214401F8034C340201552400000100E4000120E4050
S214401F9010E000E0F11E400030B583B0144B1860EE
S214401FA01020144B98474FF020517C20124B9847F6
S214401FB0124C01224FF080512046114B9847114B4E
S214401FC0009351234FF08052102120460E4DA847D3
S214401FD04FF0805120460D4B98474FF480320C4BC3
S214401FE01A600022102120460A4B984703B030BDA5
S214401FF034C34020155240001D4E400000140E4091
S214402000454C4000B11E40009D4F40000B4E4000E6
S21440201000E100E07150400008B528B94FF080510B
S2144020200448054B984708BD4FF080510148034B84
S214402030984708BD00140E400F4E40000B4E40001F
S214402040F8B5394C4FF480112166C4F8901061659C
S2144020506162C4F88010236F0B432367636F23F4D9
S214402060801363674FF400122266C4F890206265BE
S2144020706262C4F88020236F13432367636F23F4A0
S214402080001363674FF480032366C4F8903063659B
S2144020906362C4F88030206F18432067606F20F476
S2144020A0800060676160626063604FF000766660E3
S2144020B02660266126631D4D28461D4B9847022301
S2144020C02B6080232B606B6843F001036B606B686A
S2144020D043F010036B6001212846164B98470022B8
S2144020E001212846144B9847012211462846134B97
S2144020F09847002201212846114B9847114912481B
S214402100124B9847C2B201212846114B98470023EC
S2144021101A46012128460F4FB84701232B602663F5
S2144021200D4B98470020F8BD00140E40008000403C
S21440213069524000955240000F5340002D534000D6
S2144021404B53400000A3E111006CDC025F5340009B
S214402150755340009D534000F11E40002DE9F04F5E
S21440216083B0032844D10E684D680C8900238DF84F
S2144021700430ADF8063086B1002D36D14FF0010858
S214402180994601AD4FF00072204B5A632CB3204F56
S214402190DFF894B0DFF894A006E04FF000084FF068
S2144021A0010901AEEEE7C4B100231A46317838463D
S2144021B0D8470DF105020DF106013846D047BDF867
S2144021C006302B70013CA4B2B8F1000F00D10135A7
S2144021D0B9F1000FE7D10136E5E74FF000720B4B3F
S2144021E01A63002003B0BDE8F08F6FF00500F9E7F2
S2144021F040F21F1207490848084CA0470848A04725
S2144022000848A0474FF0FF30ECE700BF00140E40F0
S214402210008000400CC640001CC640001D624000C6
S21440222030C6400048C64000DB524000AB5240003B
S21440223002220E4B1A6003F5592303F580634FF4D0
S21440224000125A61C3F8A0204FF480125A61C3F8B6
S214402250A0204FF480025A61C3F8A0204FF00072CD
S2144022605A61C3F8A0200020704700BF008000409D
S2144022703AB10139821811F8013F00F8013B90420B
S214402280F9D1704722B1821800F8011B9042FBD169
S2144022907047037843B1002301339BB210F8012FF7
S2144022A0002AF9D1184670470023FBE7024A137804
S2144022B00133DBB2137070473BC3402070470000C9
S2144022C000B583B001200B4B984701A941F270003E
S2144022D0094B9847034618B1184603B05DF804FB0F
S2144022E0019941F00201019141F27000034B984779
S2144022F00346F1E719204000DD354000E93540004F
S21440230008B5124B1B784BB9114B1B78DBB2032B2D
S2144023100CD00F4B1B78DBB2042B07D00B4A13783C
S2144023200133DBB213700023184608BD094B9847AB
S21440233003460028F8D145F2786141F27400064B16
S214402340984703460028E9D0EEE700BF39C340204F
S21440235038C340204D314000E93540001E4B1B78C5
S21440236023B11D4A1378013BDBB213701A4B1B781E
S214402370002B2ED1194B1B78DBB2032B06D0174B04
S2144023801B78DBB2042B01D0002323E000B583B0DA
S2144023900023019344F2213141F27400104B9847D8
S2144023A0034618B1184603B05DF804FB01A90120A6
S2144023B00C4B984703460028F4D1019911F0020FC0
S2144023C0F0D021F0020101910120054B98470346C9
S2144023D0E8E700231846704739C3402038C34020FA
S2144023E0E9354000DD3540002DE9F04F87B007461F
S2144023F0884692469946109CBDF84460BDF84850C1
S21440240001F07F038DF815308DF814000823ADF8E1
S2144024101630002C00F09F80BDF8163016FA83F375
S2144024202B449BB2ADF816305C4B98478346002849
S21440243040F0A28000230393ADF806300293029B3F
S2144024401F430297029B43EA08230293BDF81620D7
S214402450029B43EA02430293029941F28C00504B9E
S21440246098478346002840F0918000230293029BC1
S21440247043F002030293029941F27800484B984792
S2144024808346002840F0828000230393ADF8063050
S214402490BDF806309BB2B3F57A7F16D241F2780883
S2144024A0404F02A94046B84778B9029B13F0020F46
S2144024B059D0BDF8063001339BB2ADF80630BDF8B2
S2144024C006309BB2B3F57A7FEBD3039B002B61D0EB
S2144024D0039B0493BDF816309BB2ADF816300498B3
S2144024E0082205A9304B9847834600284ED1049BC6
S2144024F008330493BAF1000F0AD004984A4651466E
S214402500294B98478346002840D1049B4B4404936C
S2144025107CB1049BA5EB09051D44049504983246FE
S2144025202146214B9847834600282FD1049B1E44C2
S2144025300496039B9B000293029B43F00203029384
S214402540029941F26C00164B98478346F0B9174BF8
S214402550984783461AE0BDF8163019FA83F39BB2C3
S214402560ADF8163060E703A911480E4B984700288F
S214402570ABD000230393A8E740F29F120D490E48C4
S2144025800E4CA0470E48A0470E48A047584607B0F6
S214402590BDE8F08F6FF0020BF8E700BF0123400064
S2144025A0E9354000DD354000513640005D234000AF
S2144025B0000415004CC640001CC640001D6240008A
S2144025C0A0C8400048C640002DE9F04387B0DFF879
S2144025D0F892A24FA24EDFF8F482D5E0042204A976
S2144025E00598A04B9847BDF812309BB2ADF8123014
S2144025F00446002830D1BDF812309BB29D4205D02B
S214402600BDF812309BB2EB1A042B33DC9DF8103029
S214402610DBB2012B47D09DF81030DBB2022B5FD0E7
S2144026209DF81030DBB2042B68D09DF81030DBB23A
S214402630062B71D09DF81030DBB2072B7AD040F2D3
S214402640022241463046884CA0478848A0478848E2
S214402650A0476FF0050496E04FF4EB7241463046D3
S214402660814DA8478348A8478148A8470120824B08
S214402670984788E040F2DF12414630467A4CA04701
S214402680BDF812209DF810309DF81110009192B2BE
S21440269029467A48A0477648A0470120764B984777
S2144026A06FF005046FE0764B1B6843B19DF8110050
S2144026B0BDF812100839059A083289B29847714B0E
S2144026C01B78002B5CD140F2092241463046664CCE
S2144026D0A0476D48A0476648A0476C4B98474FE0D8
S2144026E06B4B1B68002BEAD09DF81100BDF812100A
S2144026F00839059A083289B29847E0E7654B1B6867
S214402700002BDCD09DF81100BDF812100839059A50
S214402710083289B29847D2E75F4B1B68002BCED071
S2144027209DF81100BDF812100839059A083289B292
S2144027309847C4E7594B1B68002BC0D09DF8110042
S214402740BDF812100839059A083289B29847B6E79C
S21440275040F2112241463046434CA0475048A047DD
S2144027604348A0476FF001042FE04FF406724146FD
S21440277030463D4CA04703994A48A0473C48A047AE
S214402780494B9847044604BB99F80030002B00F0AC
S2144027909F8099F80030013BDBB289F800301FE09B
S2144027A040F21E22414630462F4DA8473F48A84794
S2144027B02F48A84709E04FF40972414630462A4D53
S2144027C0A8473B48A8472A48A84740F243223949E9
S2144027D03046254DA84721463748A8472448A847AD
S2144027E0B84704460028E6D103A941F27000334BAF
S2144027F0984704460028D3D1039B13F0010FB4D06A
S2144028001D4B9847039921F00101039141F2700056
S2144028102B4B984704460028D7D10022194B1A70F4
S214402820039DC5F38B05002D92D006A941F8042DD3
S21440283041F28400214B9847044600283FF4CEAE30
S2144028404FF4E77241463046074DA8471D48A84713
S2144028500748A8470120084B984794E701234000C3
S2144028601CC64000F53540001D6240000CC74000C5
S21440287048C64000B4C6400019204000CCC64000C0
S21440288050C340203AC3402024C74000C1224000E5
S21440289044C3402048C340203CC340204CC3402053
S2144028A048C740005CC740005D23400078C74000F2
S2144028B09CC7400060C64000BCC74000DD354000B5
S2144028C0E93540008CC640003BC3402058C6400017
S2144028D0002007B0BDE8F0832DE9F04383B01C46E6
S2144028E0002A18BF002903D005460F461646B8B939
S2144028F04CB10122324B1A70324B98470346184669
S21440290003B0BDE8F08340F269222F492F48304C8F
S214402910A0473048A0473048A0476FF00B03EEE78B
S214402920694641F270002D4B984703460028E6D191
S214402930DDF8008001A941F28400284B9847034601
S2144029400028DCD1C8F38B0846451CD8019B9D4225
S21440295028D305EB06094344994523D832463946E1
S21440296028461F4B984703460028C8D1019A9044F2
S214402970C84501D0002CC2D00122114B1A70114B11
S21440298098470346BBE740F27A220F490F48104C5F
S214402990A047424631461348A0470F48A0476FF02D
S2144029A00B03ACE74FF4207207490848084CA04791
S2144029B00D48A0470848A0476FF00B039FE700BFAD
S2144029C03AC34020C122400070C640001CC64000AA
S2144029D01D624000ECC7400048C64000DD35400060
S2144029E0F53540000CC8400050C8400038B5431E7E
S2144029F0062B1DD8DFE803F00804100C1C14180042
S214402A00134B1960002038BD124B1960002038BDAA
S214402A10114B1960002038BD104B1960002038BD9E
S214402A200F4B1960002038BD0E4B1960002038BD92
S214402A30044640F2B9220C490C480D4DA8472146A1
S214402A400C48A8470C48A8476FF00B0038BD00BF9D
S214402A5044C3402050C3402048C3402040C3402089
S214402A603CC340204CC340207CC640001CC64000AF
S214402A701D62400094C8400048C6400010B500247F
S214402A80094B1C60094B1C60094B1C70094B1C70A1
S214402A90094B1C7009480A4B98470A4903200A4BC1
S214402AA09847204610BD00BF50C3402044C3402036
S214402AB039C3402038C340203BC34020AD224000AD
S214402AC0991F4000BD224000ED29400030B59FB020
S214402AD015462C282ED004461B283BD0062849D025
S214402AE00E2825D0322855D02F2863D0342876D0CB
S214402AF0112800F09380132800F0A880042800F0E6
S214402B00B780652800F0C680092800F0D5802A28BE
S214402B1000F0E480202800F0F3804FF49572864958
S214402B208648874DA84721468648A8478648A847EE
S214402B301FB030BD0023042203A92846834CA0477B
S214402B400028F5D1824B1B68002BF1D003A92C201E
S214402B509847EDE70023082203A928467B4CA04768
S214402B600028E5D17A4B1B68002BE1D003A91B2037
S214402B709847DDE70123302203A92846734CA04737
S214402B800028D5D1724B1B68002BD1D003A9062054
S214402B909847CDE70023102203A928466B4CA04750
S214402BA00028C5D16A4B1B68002BC1D003A9322030
S214402BB09847BDE76422002103A8664B9847002348
S214402BC0642203A92846614CA0470028B0D1604B38
S214402BD01B68002BACD003A92F209847A8E70023FA
S214402BE0042203A92846594CA0470028A0D15A4899
S214402BF0534CA0470399CBB20093C1F30723C1F3CC
S214402C000742090E5548A0474F48A047504B1B68FF
S214402C10002B8DD000213420984789E70023504A66
S214402C201370042203A92846484CA04700287FF486
S214402C307FAF9DF80C204B4B1A70454B1B68002B02
S214402C403FF476AF03A91120984771E700232C2262
S214402C5003A928463D4CA04700287FF469AF3C4B6B
S214402C601B68002B3FF464AF03A9132098475FE727
S214402C70002304221CA92846344CA04700287FF491
S214402C8057AF334B1B68002B3FF452AF1CA90420B0
S214402C9098474DE7002304221CA928462B4CA04702
S214402CA000287FF445AF2A4B1B68002B3FF440AF0B
S214402CB01CA9652098473BE70123642203A92846C0
S214402CC0224CA04700287FF433AF214B1B68002BD3
S214402CD03FF42EAF03A90920984729E70123042291
S214402CE003A92846194CA04700287FF421AF184B6B
S214402CF01B68002B3FF41CAF03A92A20984717E710
S214402D000023082203A92846104CA04700287FF439
S214402D100FAF0123BDF81020039905F10800A04726
S214402D2000287FF405AF0A4B1B68002B3FF400AF2A
S214402D3003A920209847FBE6C0C840001CC64000B8
S214402D401D6240001CC9400048C64000D9284000CB
S214402D5054C3402085224000F0C84000FCC84000D4
S214402D6059C3402058C34020F0B58BB001238DF89E
S214402D700730002850D00268294B1A600022294BA1
S214402D801A700DF10700284B9847044610B12046AC
S214402D900BB0F0BD254B98470446002838D124494F
S214402DA00120244B984702A8234B98470446234FBC
S214402DB03846234DA8479DF80E309DF80D209DF8C7
S214402DC00C102048A847204E3046A8473846A8470B
S214402DD09DF811309DF810209DF80F101B48A8470D
S214402DE03046A8473846A8470023032213211848F0
S214402DF0A8473046A84714F10D0FC8D140F2D51267
S214402E0014491548A8471548A8473046A847BEE77E
S214402E100020134B9847BAE76FF00B04B7E700BFA4
S214402E2054C3402059C340205D3740007D2A4000AF
S214402E30CD2A4000ED294000AD364000F0C84000A5
S214402E401D624000DCC9400048C64000F8C940004A
S214402E5014CA4000CCC840001CC6400030CA4000DF
S214402E602938400008B5014B984708BDC9254000A1
S214402E702DE9F041A0B080460D4614461E46BDF8EA
S214402E809870012A03D0002B37D0022A42D06B1EFE
S214402E90DBB21F2B75D8FF2F01D00D2F7ED82A46C8
S214402EA041460DF15A00774B984720AB1D4400230E
S214402EB005F8263CADF858709DF89C30003318BF96
S214402EC001238DF87B308DF85540032C73D0022CAF
S214402ED000F0AA80042C00F0C180012C40F0C48091
S214402EE000230293019300936C2305AA2821012016
S214402EF0654CA04720B0BDE8F08140F2032263490C
S214402F006348644CA0476448A0476448A0476FF0B5
S214402F100B00EFE71846624B98474028B7D1337806
S214402F20A3F13A02D2B2062A1ED9A3F13002D2B297
S214402F30362A19D8473BDBB2192B15D9314606F14C
S214402F403F0011F8013FA3F13A02D2B2062A0BD94C
S214402F50A3F13002D2B2362A06D8473BDBB2192B51
S214402F6002D98842EDD192E740F20F2247494848BD
S214402F70484CA0474B48A0474848A0476FF00B0036
S214402F80B8E740F2192241494148424CA0474648DA
S214402F90A0474248A0476FF00B00ABE740F2222222
S214402FA03A493B483B4CA0474048A0473B48A0478F
S214402FB06FF00B009EE73378013BDBB28DF81430A0
S214402FC0032B13D87278531E8DF8153002F0EF039A
S214402FD00B2B1AD1B11C0DF116002A4B984773786B
S214402FE020AA1344002203F86A2C79E740F23922DB
S214402FF026492748274CA0479DF814102C48A04740
S2144030002648A0476FF00B0074E74FF410721F4934
S2144030101F48204CA0479DF815102648A0471F483B
S214403020A0476FF00B0065E730461D4B9847431EA0
S2144030309BB23F2B05D8421C314605A8114B9847FA
S2144030404EE740F24F2211491148124CA0471A4809
S214403050A0471248A0476FF00B004BE73E22314690
S21440306005A8084B98473BE740F25F2207490848C7
S214403070084CA0471148A0470848A0476FF00B00EF
S21440308038E700BF71224000E9234000DCC840001A
S2144030901CC640001D62400030C9400048C6400083
S2144030A09322400044C9400054C9400068C94000CB
S2144030B074C9400090C94000ACC94000C8C940002F
S2144030C010B582B000240194BDF810400094024C24
S2144030D0A04702B010BD00BF712E400010B586B0AC
S2144030E00622014604A8074B984700230293019303
S2144030F00093082304AA02210120034CA04706B0EF
S21440310010BD00BF71224000E923400000207047F8
S214403110F0B583B004464FF4A5550A4E0A4F2146F3
S2144031202846B04754B102A9002341F8043D28463A
S214403130B8470028F3D1019B9C42F0D1002003B051
S214403140F0BD00BFE9354000DD3540002DE9F04FC9
S21440315083B001203C4B984701A901203B4B984740
S214403160824638B900244FF00108DFF80891364D02
S214403170374F20E0722237493748384CA047384806
S214403180A0473848A04709E0962232493248334C97
S214403190A0473548A0473348A047B246504603B0FC
S2144031A0BDE8F08F019941F002014046C847009BB8
S2144031B013F0040FF2D1019941F002014046C8478E
S2144031C04046A8476946294B1868204B984708B997
S2144031D0009BBBB9254E0E2333604046A847694640
S2144031E030681A4B984708B9009B5BB91F4E1323AB
S2144031F033604046A84769463068144B98470646B1
S2144032000028C1D1194E009B13F0040FC6D10134DB
S214403210A7FB04235B0803EB43039C42C2D1022076
S214403220A84769463068094B9847009B13F0040F3F
S214403230E9D1AA2207490848DFF820B0D8470C4809
S214403240D8470848D847DEE7CD1E4000DD35400069
S214403250ABAAAAAA4CCA40001CC640001D62400049
S214403260BCCA400048C64000DCCA400014004020AB
S214403270FCCA4000E935400000B583B001A941F2E0
S2144032800840154B9847E8B9019941F4807101917F
S21440329041F20840114B9847B8B901A94FF4D050B5
S2144032A00D4B9847A0B9019941F4803101914FF4F4
S2144032B0D0500A4B9847002818BF6FF0050003B05F
S2144032C05DF804FB6FF00500F9E76FF00500F6E7E0
S2144032D06FF00500F3E700BFDD354000E9354000FC
S2144032E010B582B0254B1C6824B1244B1C68204680
S2144032F002B010BD19464FF48050214B984718B184
S21440330000221E4B1A60F2E701A941F2F4301C4B32
S214403310984718B10022194B1A60E8E7174B1B680C
S214403320184A93420DD0184A934211D0174A9342F6
S21440333018D0124A136823F4702343F4A023136072
S214403340D3E7019B012BF4D001320C4B1A60F0E717
S214403350019B032BEDD0042B0CBF01320C4A074BCC
S2144033601A60E6E705494FF46C10054B984700286D
S214403370DFD00022014B1A60B9E700BF5CC3402093
S214403380DD354000A0021000B0021000F000100032
S214403390B20210002DE9F041074641F21405284CD0
S2144033A0284E2846A047002802DB0120B047F8E711
S2144033B02548234B984710F0010F10D1DFF8848042
S2144033C01F4E224D0120C0474FF00C10B047044618
S2144033D02A4601461E481F4B9847AC42F2D1022F60
S2144033E019D0032F22D0042F14BF002480241A4B58
S2144033F09847C0F30B00B0F5687F0CBF44F002005E
S2144034002046164B984716494FF00C10154B9847D8
S2144034100020BDE8F08114491448124CA0474FF4F0
S214403420801141F28C00A0470024E0E70E490F4887
S2144034300C4CA047002141F28C00A0470024D6E760
S214403440D1354000CD1E4000BC0702009ED0AD10D6
S21440345020CB40001D624000E13240001131400068
S214403460612F52EFE93540007DD51C3CAC07020089
S214403470F0B583B041F28C030193184B00930238A9
S214403480C0B2012811D94FF0FF3400200227144E55
S214403490144D009B984212D03846B0470198A84732
S2144034A0013CF6D16FF004000EE00F4B0193A3F100
S2144034B02253A3F51113A3F2E9530093E3E7009ACE
S2144034C0064B9A4202D0002003B0F0BD002141F2E4
S2144034D08C00064B98470020F6E700BF362653027E
S2144034E0CD1E4000D1354000AC070200E935400013
S2144034F0F0B583B002A9002341F8043D4FF4A05034
S214403500244B984720BB019921F4806101914FF4E8
S214403510A050214B9847054628BB0A241D4E1E4FF7
S21440352001A94FF4A050B047054638BB019911F4A5
S214403530806F0AD021F4806101914FF4A050B847C3
S2144035400546631E13F0FF04EAD1284603B0F0BDDB
S21440355040F2312211491248124CA0471248A04767
S2144035601248A047CFE740F237220C490C480D4C92
S214403570A0470F48A0470D48A047E6E740F23E2246
S21440358006490748074CA0470A48A0470748A047AF
S214403590DBE700BFDD354000E93540005CCA40004F
S2144035A01CC640001D62400068CA400048C6400035
S2144035B084CA4000A0CA400008B5014B984708BDE1
S2144035C04120400008B5014B984708BD31224000D5
S2144035D008B5014B984708BD253E400008B5014B4D
S2144035E0984708BD3D3E400008B5014B984708BD8A
S2144035F0553E40002DE9F047074689461546124B92
S214403600B3F80080A8F108081FFA88F8424519D98F
S21440361044460026DFF834A0424609EB0601384609
S214403620D047034658B92D1B26442744A542F3D815
S214403630AAB209EB06013846044B9847034618469B
S214403640BDE8F0870026F3E710004020813F4000A9
S2144036502DE9F047074689461546124BB3F80080D9
S214403660A8F108081FFA88F8424519D944460026AA
S214403670DFF834A0424609EB06013846D0470346F9
S21440368058B92D1B26442744A542F3D8AAB209EBC5
S21440369006013846044B984703461846BDE8F0876F
S2144036A00026F3E7100040204940400030B583B084
S2144036B0044602A9002341F8043D2448244B984779
S2144036C00546019A234B9A4239D0019B1A0C91B277
S2144036D0080AE071C1F30311217202F00F02627210
S2144036E09AB2110A2171C2F30312627103F00F03FA
S2144036F0A371194B984720602279A37903F00F03F2
S21440370043EA022362791201D2B21343E179627A24
S21440371002F00F0242EA0122217A0901C9B20A43A5
S21440372041F230318A4288BF6FF00C0541F22F32A9
S21440373093428CBF28466FF00C0003B030BD01A901
S21440374041F24800024B98470546BEE7AC070200E8
S214403750DD354000C3C15DD7E132400038B50028B2
S21440376037D00478631EDBB2042B28BF0124002028
S2144037701E4B9847054600282DD11D481D4DA8478D
S2144037801D4B984701461D48A8471D48A8471D4B56
S214403790984720461C4B98470546B0B920461B4BD9
S2144037A09847054688B9023CE4B2012C0FD9184B1D
S2144037B09847054658B14FF4AE72164916480D4C18
S2144037C0A0471648A0470E48A047154B984728469E
S2144037D038BD0124CBE74FF492720E490E48054C93
S2144037E0A0471048A0470648A047F0E7B935400034
S2144037F0F0C840001D624000E1324000E8CB400087
S21440380048C640006D3E400095334000713440004D
S2144038107932400030CB40001CC64000ACCB400064
S214403820C5354000CCCB400038B5194B984758B901
S2144038300020184B9847044698B9174B98470446BB
S214403840D0B9164B98470AE004464FF4BA7214496A
S2144038501448154DA8471548A8471548A847204678
S21440386038BD40F27B120E490E480F4DA84711480E
S214403870A8470F48A847F2E740F28112084909488E
S214403880094DA8470C48A8470948A847E7E700BF9E
S214403890F1344000CD484000C5354000193E400058
S2144038A03CCB40001CC640001D6240004CCB400054
S2144038B048C640006CCB400090CB400000B585B079
S2144038C0002301930290ADF80C1001A90320024B8F
S2144038D0984705B05DF804FB5D2140002DE9F041B6
S2144038E082B0054600F13B03DBB2012B27D9CF2837
S2144038F025D00B244FF00108234F41460DF1070019
S214403900B847064620BB9DF80730AB422CD0631E16
S21440391013F0FF04F1D10B2401271B4D39460DF15E
S2144039200700A84710BB9DF8073053B3631E13F03B
S214403930FF04F3D10126304602B0BDE8F0810121F4
S2144039400DF10700104B98470028D2D00026F2E72A
S21440395040F227120D490E480E4CA0470E48A0478D
S2144039600E48A0470026E6E70B24D5E740F235127E
S21440397006490748074CA0470748A0470748A047BE
S214403980D9E70126D7E700BFBD38400000CC40004D
S2144039901CC640001D62400040D0400048C6400063
S2144039A02DE9F04F85B083468A4617464FF000090A
S2144039B0374D27E040F2571236493748374CA04734
S2144039C03748A0473748A04700230193019805B0E1
S2144039D0BDE8F08F002C2EDD41460BEB0900A847D2
S2144039E00446002834D11FB92F4B1B78002B3AD001
S2144039F0C1440FFA89F9AAEB080A1FFA8AFABAF103
S214403A00000F41D0D046BAF5005F28BF4FF40058AB
S214403A100A24012631460DF10B00A84701900028E4
S214403A20C8D19DF80B301B090F2BD3D0013C24B2D4
S214403A30B4F1FF3FEED140F2631216491648174CD8
S214403A40A0479DF80B101948A0471648A047BDE769
S214403A504FF4B6720F491048104CA0471448A04780
S214403A601048A047B2E7022103A8A8470028BFD0C5
S214403A7040F2771207490848084DA8470D48A8471E
S214403A800848A8470194A1E7012301939EE700BF99
S214403A90BD3840000CCC40001CC640001D624000B3
S214403AA074D0400048C6400060C34020A8D04000C4
S214403AB0D8D040000CD1400000B585B0019000231E
S214403AC00293ADF80C1001A90320024B984705B0AD
S214403AD05DF804FB5D21400070B584B09DF8204041
S214403AE08DF80400C1380E2800F2A280DFE800F00E
S214403AF0454566192A3354547F08A0A0A0A03C0030
S214403B000B0C8DF805300B0A8DF806308DF8071033
S214403B100521554B1B78002B00F08C800139C9B22B
S214403B209AE0C1F3072344B98DF805308DF80610A6
S214403B3000238DF807300521EBE763F07F038DF80F
S214403B400530F3E700238DF805308DF806308DF804
S214403B5007300521DDE700238DF805308DF8063067
S214403B608DF807300521D4E7FF238DF805308DF812
S214403B7006308DF807300521CBE70A0C8DF8052076
S214403B800A0A8DF806208DF807101A0A8DF80820C4
S214403B908DF809300721BCE70A0C8DF805200A0A83
S214403BA08DF806208DF807101A0C8DF808201A0A92
S214403BB08DF809208DF80A300821AAE7C1F30723BB
S214403BC084B98DF805308DF80610130E8DF8073041
S214403BD0130C8DF80830130A8DF809308DF80A203A
S214403BE0082196E763F07F038DF80530EBE70B0C72
S214403BF08DF805300B0A8DF806308DF80710130E39
S214403C008DF80830130C8DF80930130A8DF80A30F9
S214403C108DF80B2009217CE74FF484721349144831
S214403C20144CA0471448A0471448A047002019E069
S214403C30002017E04E1E01AB9D197F201A46104CFF
S214403C4012F8013B83EA4003E05C9542F8D104ABAE
S214403C501E44430006F80C3C01A80A4B984700282F
S214403C60DAD1012004B070BD60C34020F8CB4000DC
S214403C701CC640001D62400014D0400048C64000AC
S214403C8074CC4000B93A400070B582B00446312842
S214403C9035BF01230023C325C925009304230A46C4
S214403CA001462846154EB04701280DD040F2EB128B
S214403CB013491448144DA84721461448A8471448A9
S214403CC0A847002002B070BD2846124B98470128EE
S214403CD0F8D040F2F1120A490A480B4DA84721464F
S214403CE00D48A8470A48A847002400942346224681
S214403CF02146CF20014DA8472046E3E7D93A400069
S214403D002CCC40001CC640001D624000C4D1400080
S214403D1048C64000DD384000F0D140002DE9F04173
S214403D2084B004468846B0F5807F35BF012600261D
S214403D30C425CA25009604230022014628462C4F57
S214403D40B84701280ED040F245222A492A482B4D32
S214403D50A84721462A48A8472A48A847002004B032
S214403D60BDE8F0812846284B9847012814D040F2F9
S214403D704B2220492048214DA84721462348A847A2
S214403D802048A84700240094234622462146CF20B8
S214403D90174DA8472046E2E73246042103A81C4BAD
S214403DA09847012810D19DF80D209DF80E301B0431
S214403DB043EA02239DF80C2013439DF80F2043EA64
S214403DC00263C8F80030CAE740F2532209490A485D
S214403DD00A4CA0470F48A0470A48A0470024009432
S214403DE0234622462146CF20014DA8472046B6E727
S214403DF0D93A40004CCC40001CC640001D624000F2
S214403E0044D1400048C64000DD38400070D14000F4
S214403E10A1394000A4D140000020014B18707047E3
S214403E2060C3402000B583B001A9034B9847019872
S214403E3003B05DF804FB00BF1D3D400008B5044BD1
S214403E40984701280CBF00206FF0050008BD00BF52
S214403E501D3D400008B5044B984701280CBF002084
S214403E606FF0050008BD00BF893C400030B583B008
S214403E70002302A941F8083D344A13704EF6240048
S214403E80334B984748B3314B1B787BB9009921F0A8
S214403E907C0141F0500100914EF624002D4B98478E
S214403EA00446002839D00122284B1A7001A94FF445
S214403EB08050274B984700283AD04EF62400264B91
S214403EC0984720F0700141F050014EF62400234BF5
S214403ED098470024204603B030BD01221B4B1A7081
S214403EE040F2C5221E491F481F4CA0471F48A04706
S214403EF01F48A04769464EF62400154B984704468F
S214403F000028C0D14FF4327215491648164DA847BE
S214403F101848A8471648A847DCE740F2D22210497E
S214403F201048114DA8471448A8471148A847D1E75C
S214403F304FF437720A490B480B4CA0470F48A0472E
S214403F400B48A0476FF00504C4E700BF60C340209D
S214403F501D3D4000893C4000253E4000553E400007
S214403F6068CC40001CC640001D62400074CD400036
S214403F7048C64000C4CD4000F4CD400028CE4000A6
S214403F80F0B583B004460F461546002200922B46F5
S214403F900146C820224EB04701280ED04FF41D726D
S214403FA020492148214DA84721462148A847214875
S214403FB0A8476FF0050003B0F0BDC8201E4B9847D9
S214403FC0012812D040F27A2216491748174DA847C2
S214403FD021461A48A8471748A847002100910B4693
S214403FE00A46CF200E4CA047E3E700222946384633
S214403FF0134B9847012811D04FF4217209490A48BB
S2144040000A4CA0470F48A0470A48A0470021009105
S2144040100B460A46CF20024CA047CAE70020CAE714
S214404020D93A40005CCC40001CC640001D624000AF
S21440403050CE400048C64000DD38400080CE4000AC
S214404040A1394000B8CE40002DE9F04385B0044683
S21440405088461546002200922B460146C7204D4E04
S214404060B04701280FD040F20F224B494B484C4DE9
S214404070A84721464B48A8474B48A8476FF005003D
S21440408005B0BDE8F083C720484B9847012812D0BA
S21440409040F2152240494148414DA84721464448F0
S2144040A0A8474148A847002100910B460A46CF2022
S2144040B0384CA047E2E70024ADF80C403D4FDFF80F
S2144040C00C911DE0B5F5005F94BF0323022363F017
S2144040D00F038DF80B3001210DF10B00B847E8B9FE
S2144040E0314608EB0400B847002835D199F800302F
S2144040F0002B3CD0344424B2AD1BADB2002D46D08C
S2144041002E46B5F5005F28BF4FF40056002CD9D197
S214404110B5F5005F94BF03230123D8E74FF4D4726C
S21440412025491E481E4CA0472448A0471E48A04785
S21440413040F2262218491948194CA0472048A04763
S2144041401948A04700240094234622462146CF2003
S214404150104DA847204693E740F2B11216490F4843
S2144041600F4CA0471748A0470F48A047E0E702215A
S21440417003A8B8470028BDD040F2BB120E490748F6
S214404180074CA0471048A0470748A047D0E7002064
S21440419076E700BFD93A40003CCC40001CC6400001
S2144041A01D624000E0CE400048C64000DD3840007A
S2144041B010CF4000B93A40001CCC400048CF4000E9
S2144041C0ECCF400080CF4000B4CF400060C34020DA
S2144041D02DE9F84FBDF8284094B181460E469246E8
S2144041E0984603012249CB5853B101EB00139B88F4
S2144041F09BB22BB101EB00139B7ADBB2012B01D0B3
S214404200BDE8F88FF48001EB0017DFF87CB006E0DD
S214404210254601230BE0641BA4B2A844ECB1BB883E
S214404220E31A1BB2002BF3DDBD88ADB2002339681C
S2144042302A464046D84790B93B683360B580F388F5
S2144042405B1BF3800B4B1B68002BE4D0094B1B68B1
S2144042503246514648469847DDE7BDE8F88F06485F
S214404260064DA84721460648A8470648A847C7E738
S21440427064CA402014CB4020F0C840001D62400075
S21440428028D2400048C64000D9284000F0B599B032
S2144042901446412849D00D4642285FD0432875D061
S2144042A0442800F0B0804B2800F0AD804A2800F04B
S2144042B0CC80A0F14603DBB2072B00F2F4808522C7
S2144042C022FA03F313F0010F00F0ED80482814BFE4
S2144042D0062709270023102203A92046934EB047FD
S2144042E0002840F0B0809DF91800BDF81A10904A9A
S2144042F002EB001200231373BDF914E0BDF816302C
S214404300BDF80E60ADF82660049E0A96D28892B23A
S214404310914200F0AC80102D40F29580012300229F
S21440432011461046814CA0478DE00023042207A981
S21440433020467E4CA047002840F085809DF81D30E2
S2144043408DF80C307B4B1B68002B7CD0794B1B6860
S21440435003AA01219DF91C00984774E0002304221B
S21440436007A92046714CA04700286CD19DF81D3007
S2144043708DF80C306F4B1B68002B64D06D4B1B6860
S21440438003AA02219DF91C0098475CE000230C22FA
S2144043900DEB02012046654CA047002853D19DF9FD
S2144043A01530002B19DB624A02EB03120021D17252
S2144043B00121917260490A88013292B20A800A88C5
S2144043C092B21AB90A88013292B20A805A4A1188C1
S2144043D089B2574A02EB0312D1808DF81C30022373
S2144043E0ADF82030BDF80E30ADF82230049B09936E
S2144043F0504B1B683BB34F4B1B6807AA04219DF9E3
S214404400140098471FE00023042207A92046474C83
S214404410A047C0B99DF91C008DF80C009DF91D30D1
S2144044208DF80D303BB9BDF81E30083B9BB2404A74
S21440443002EB001213813F4B1B6823B13D4B1B68B8
S21440444003AA0521984719B0F0BD0023442207A9C6
S2144044502046364CA0470028F5D1384B1B68002B29
S214404460F1D0364B1B68179907A89847EBE7BEF183
S214404470000F01DDAE450DDBADF820E000230793CD
S2144044802C4B1B68002BDED02A4B1B6807AA3946EC
S2144044909847D8E71FFA8EF2009223443A4607A977
S2144044A0274CA047CFE700F0FD03452B19D04C28FA
S2144044B017D05228C7D10123142207A920461B4CE7
S2144044C0A0470028BFD11F4B089A1A601B68002BD4
S2144044D0B9D01C4B1B689DF82C2009990798984723
S2144044E0B1E7472814BF072508250023082207A957
S2144044F020460E4CA0470028A5D19DF91C00BDF8CB
S2144045002020BDF81E30ADF80C30094B03EB0013ED
S214404510DB889BB29A4296D1064B1B68002B92D002
S214404520044B1B6803AA294698478CE7D9284000C5
S21440453064CA402014CB402062C340201CCB40209D
S214404540D141400018CB402008B50A4B1B7803B138
S21440455008BDB02200210848084B98470849022069
S214404560084B98470122034B1A700022064B1A80CC
S214404570EEE700BF61C3402064CA40208522400069
S2144045808D424000ED29400062C34020024B186037
S214404590024B1960704700BF14CB40201CCB402014
S2144045A0F0B587B0022858D1012959D0022916D132
S2144045B00B26072425462E4B03EB04139B7A002B31
S2144045C051D0631CDBB22A4FDCB2B44240D21D4607
S2144045D007EB0311897A581C21B10346F4E74FF0E4
S2144045E0FF3437E0224800EB031016461022002125
S2144045F0204B98471E4B03EB051301229A721E4A26
S214404600138801339BB2138013889BB21BB913885F
S21440461001339BB21380184B1A8892B2144B03EBAB
S2144046200513DA8064B216F0010F13D006AA02F81A
S214404630044D0F4B03EB05152123EB720023029329
S214404640019300930423502102200C4DA84701E01B
S2144046504FF0FF34204607B0F0BD4FF0FF34F9E787
S21440466007260024A6E7024800EB0410BDE700BF7B
S21440467064CA40208522400062C34020E9234000AF
S21440468030B589B0041E36DB002934D01D4B03EB11
S21440469004139B7ADBB2002A30D0012B2ED1194B63
S2144046A003EB0413DB7A13F0010F22D0154B03EB18
S2144046B00413DB7A8DF81D304B258DF81C400822FC
S2144046C005A8114B98470F4800EB0410C388ADF877
S2144046D01E3000230293019300930C2305AA29461B
S2144046E002200A4CA047002818BF6FF0080009B007
S2144046F030BD4425E1E76FF00500F8E76FF00500B0
S214404700F5E700BF64CA402071224000E92340001C
S21440471030B589B00C46003118BF0121B2F5AF6FF5
S21440472088BF0021002937D0002835DB1D4B03EB1E
S21440473000139B7ADBB2012B31D18DF81000ADF817
S2144047401220184B03EB0013DB88ADF81C3007280B
S214404750B4BF50254425134B03EB0013DB7A13F00C
S214404760010F17D00F4B03EB00100589ADB24C215B
S21440477002950192009410230DEB030241F0800154
S2144047800220094CA04700280CBF00206FF00D0007
S21440479009B030BD4521EBE76FF00500F8E76FF054
S2144047A00500F5E764CA4020E9234000002918BF09
S2144047B0002A44D070B586B00E461546002836DB33
S2144047C0204A02EB0012927AD2B2012A32D11D4C14
S2144047D00101621866509580127B002A2DD104EBA9
S2144047E0001201211173D27A0A40002A0CBF4621DA
S2144047F04D21D3B94FF0FF3304938DF81400114B7D
S21440480003EB0010C388ADF81630002302930193E3
S2144048100093082304AA02200B4CA04700280CBF94
S21440482000206FF00D0006B070BD0493E5E76FF012
S2144048300500F8E76FF00500F5E70020F3E76FF0B6
S2144048400500704764CA4020E923400030B587B071
S214404850041E2FDB1A4B03EB04139B7ADBB2012BAF
S2144048602BD18DF81440164B03EB0413DA88ADF8C1
S214404870162000229A72DA80DB7A03F00103934214
S2144048800292019200924FF0040305AA0CBF492100
S2144048904E2102200B4DA847051E18BF6FF0080595
S2144048A010220021064800EB0410074B9847284684
S2144048B007B030BD6FF00505F9E76FF00505F6E780
S2144048C064CA4020E92340008522400070B582B08B
S2144048D005462B4B9847C0F30B00B0F5687F03D2D4
S2144048E00024204602B070BD01A941F21040254B7D
S2144048F0984704460028F4D1234B019A1340234995
S2144049001943019141F21040214B984705B30021CD
S21440491020481F4DA847AB211F48A84701211F48E4
S214404920A84700211E48A84781211E48A8471E4E7A
S2144049301E4D3046A8470128FBD11349019B19401C
S21440494041F48031019141F21040114B9847C8E73D
S214404950002110480E4DA847B9210F48A84701210D
S2144049600E48A84700210E48A84781210D48A84771
S2144049700D4E0E4D3046A8470128FBD1DDE700BF5F
S214404980E1324000DD354000FF8F88F8001011010D
S214404990E9354000080201000C0201001402010043
S2144049A01C0201000402010018020100D13540003B
S2144049B010B51048104B98473E2100200F4B9847A3
S2144049C00F4CA0470028FCD00E4B98470E4A0F4B82
S2144049D09A620F4CA0470028FCD002200D4B984707
S2144049E000200D4B98470D4B98470248024B98477E
S2144049F010BD00BF00A3E111C956400091514000D0
S214404A00E5514000F5514000013F182000060E4099
S214404A1005524000F55040002D514000BD55400025
S214404A202DE9F04180B90C469046002A0FDD8F18DC
S214404A30084E094D306821462B6898470134BC42E1
S214404A40F8D14046BDE8F0814FF0FF38F9E78046A0
S214404A50F7E700BF28CB402020CB40200138022873
S214404A6015D82DE9F0410E4614469AB10D46DFF8AA
S214404A7038800C4FD8F8000015F8011B3B68984763
S214404A8000280ADBA81B013CF4D1BDE8F0814FF0BA
S214404A90FF3070471046BDE8F0814FF0FF30BDE86C
S214404AA0F08100BF24CB402028CB4020F8B54FF4FF
S214404AB000425C4B5A60BFF34F8FBFF36F8F5A4B29
S214404AC00022C3F850225A6942F400325A61BFF3BA
S214404AD04F8FBFF36F8FD3F88070C7F34E3607F013
S214404AE007000430C7F3C907B7FA87FE0EF01F0E5B
S214404AF0BFF34F8F4FF0FF3404FA00FC06FA00F085
S214404B0004FA0EF407FA0EFE1D463A46734640EA8D
S214404B100301C5F86012013A2344B2F1FF3FF6D1D3
S214404B20013E6044B6F1FF3FEFD1BFF34F8F3E4B9F
S214404B305A6942F480325A61BFF34F8FBFF36F8F8A
S214404B403A4A3B495160A1F580715160BFF34F8F9F
S214404B50BFF36F8FD3F8902222F00102C3F8902261
S214404B60D3F8942222F00102C3F89422BFF34F8F69
S214404B70BFF36F8F0A202F4CA0470B20A0470C2076
S214404B80A0471020A0471120A0472B4B4FF480721F
S214404B901A61C3F8A0201A63A3F580634FF400623D
S214404BA05A61C3F8A0205A66C3F890205A651A6224
S214404BB0C3F88420196F21F400611967596F21F4F6
S214404BC000615967C3F8C020C3F8D420C3F8B020AA
S214404BD04FF400121A66C3F890205A655A62C3F81A
S214404BE08020196F21F400111967596F21F40011C4
S214404BF059675A60114AD2F8143143F01003C2F88C
S214404C0014310F4B10221A66C3F890205A655A6228
S214404C10C3F88020196F11431967596F11435967BC
S214404C205A60F8BD50180E4000ED00E0000C0E40F3
S214404C300C08005A1552400000120E4000800840F2
S214404C4000100E400AB9016670474166704701631E
S214404C507047416370474264B1F1C05F3AD013D8A1
S214404C60B1F1006F25D0B1F1805F0AD1036F1343D5
S214404C700367436F416F0B4023EA0203436742607A
S214404C8070470029FBD17047B1F1205F21D009D889
S214404C90B1F1005FF3D1036F13430367436F1343D0
S214404CA04367ECE7B1F1405F13D0B1F1605F10D0DD
S214404CB0E5E710B4016F046FD34321401C4619400A
S214404CC00167436F416F0B402340436742605DF886
S214404CD0044B7047036F016F0B4023EA02030367E0
S214404CE0436F13434367CAE7416412F0010F0DD187
S214404CF0016612F00A0F0BD0016212F0020F09D1C2
S214404D0012F0080F08D0C0F8841005E04166F0E7BE
S214404D104162F2E7C0F8801041610160704710B40C
S214404D20019C41644CB901664BB101654AB9416387
S214404D30016101605DF8044B70474166F4E74165E8
S214404D40F4E70163F4E7000070B582B00546164606
S214404D501C46B1F1005F14D00AD9B1F1405F24D0AF
S214404D60B1F1605F21D0B1F1205F17D000201AE08A
S214404D70B1F1805F05D0B1F1C05F02D0B1F1006FF4
S214404D80F4D132462846114B984714F0010F02D111
S214404D902E66012007E06E66012004E01A46314682
S214404DA00B4B9847012002B070BD04F001030093FE
S214404DB0C4F38003B1F1605F14BF00220122314684
S214404DC02846044CA0470120EDE700BF574C400062
S214404DD0E94C40001F4D400012F0100F12D0C0F8B2
S214404DE0B01012F0200F07D0C0F8D41012F0400FC9
S214404DF005D0C0F8C0107047C0F8D010F6E7C0F82D
S214404E00C4107047C0F8B4107047016470474164DE
S214404E107047C06C7047806C7047000070B582B0B9
S214404E200D46464C04EB5014640201F0F043B3F1D7
S214404E30005F59D00AD8B3F1805F2FD0B3F1C05F7E
S214404E403FD0B3F1006F16D0002012E0B3F1405FC0
S214404E505DD0B3F1605F5AD0B3F1205FF4D100F07B
S214404E601F0101262A4606FA01F12046344B984790
S214404E70304602B070BD00F01F0001268640324624
S214404E804FF0006120462F4B984715F0010F02D196
S214404E9026660120EDE766660120EAE700F01F007F
S214404EA00126864032464FF080512046254B984793
S214404EB015F0010F02D126660120DAE7666601206A
S214404EC0D7E700F01F000126864032464FF0C0511B
S214404ED020461C4B984715F0010F02D1266601204C
S214404EE0C7E766660120C4E700F01F00012686403B
S214404EF032464FF000512046124B984715F0010FAE
S214404F0002D126660120B4E766660120B1E705F0C7
S214404F10605200F01F01012605EA06030093C5F320
S214404F208003B2F1605F14BF0022012206FA01F14D
S214404F302046054CA04730469BE700BF07072000A9
S214404F40E94C4000574C40001F4D40002DE9F041D1
S214404F50044688460E4B9847054620460D4B9847D4
S214404F60054013D00C4C04F1600603E0B4420DD06B
S214404F7010345DB120684045F8D161682942F5D0CB
S214404F80E3689847636825EA0305EFE7BDE8F081E4
S214404F90134E4000174E400064C34020F8B5184CEE
S214404FA02668062E2AD84FF0000C6446154F04E0BB
S214404FB00134E4B2A446A64209D3A64625017D594B
S214404FC08D42F5D107EB04156D689542F0D10D4D35
S214404FD04FEA0E1E05EB0E0445F80E106260A36005
S214404FE00699E1600136664505D011461A46064BDD
S214404FF098470020F8BD02490E60F6E70120F8BD4C
S214405000D4C3402064C34020D94D400008B50A218F
S2144050100148024B984708BD000E0E404D4F4000D9
S21440502008B50B210148024B984708BD00100E40BA
S2144050304D4F400008B50C210148024B984708BD2B
S21440504000120E404D4F400008B510210148024B5B
S214405050984708BD00140E404D4F400008B511213A
S2144050600148024B984708BD00160E404D4F400081
S214405070F8B506460D461446174B984707464FF078
S214405080FF313046154B98473046154B98475FFAE8
S21440509085FE0EF01F03012202FA03F36809114948
S2144050A001EB8002C2F88030C2F88031002D0ADB66
S2144050B06401E4B20C4A545541F820303946304633
S2144050C00A4B9847F8BD0EF00F0E6401E4B2084A4A
S2144050D002F80E40F0E700BF174E40000F4E40006B
S2144050E0134E400000E100E000E400E00B4E4000BC
S2144050F014ED00E0032811D0042812D002280CBF7B
S2144051004FF480710021084A136B23F440730B431D
S2144051101363936E13F0080FFBD070474FF4407143
S214405120F1E74FF40071EEE700060E40174A136BA6
S21440513023F0700318431063936E13F0080F0AD1E0
S2144051404FF4805311498A6E12F0080F03D1013B89
S214405150F9D1012070470D4A136B23F0030343F047
S21440516002031363936E13F0080F0AD14FF4805373
S21440517006498A6E12F0080F05D1013BF9D101208D
S2144051807047002070470020704700BF00060E4062
S214405190A0B90E48036A090289B20D4A1A400D4B5F
S2144051A01343194301620246936E13F0010FFBD07E
S2144051B0064A116A084B0B431362704703490B6A51
S2144051C0064A1A40064B13430B62704700060E40D1
S2144051D0FCFFC8FF0100370000003701FCFFC8FE97
S2144051E002003701024B986E00F48030704700BFD3
S2144051F000060E404FF00052014B9A62704700BFC7
S21440520000060E40024B986E00F00200704700BF4A
S21440521000060E403F281ED81F280CD8114B9A690E
S21440522001238340934318D0012303FA00F00D4B2B
S21440523018610020704720380A4BD3F80821012314
S214405240834093430BD0012303FA00F0054BC3F889
S2144052500001002070470120704700207047002062
S214405260704700BF00060E4008B5074B984203D073
S214405270064B984204D008BD1520054B984708BDFC
S2144052802A20034B9847F6E7008000400080054000
S21440529015524000436823F4702343604368090472
S2144052A001F4702119434160704710B443F69923C6
S2144052B0046914F0010F03D1013BF9D1012009E044
S2144052C08368406810F0020F02D0C3F303401070AA
S2144052D00B8000205DF8044B704730B443F69924A9
S2144052E0056915F0020F03D1013CF9D101200CE00D
S2144052F0446814F0020F06D0120402F470221143E0
S2144053000BB141F08071C160002030BC704732B9AB
S21440531000EB8100036B23F001030363704700EB4F
S2144053208100036B43F001030363704732B900EB1F
S2144053308100036B23F002030363704700EB810098
S214405340036B43F002030363704700EB81010B6B72
S21440535023F0F0030B630B6B1A430A637047431E3C
S2144053601944B1FBF0F0431EFE2B94BF00B24FF041
S214405370FF3070477AB110B4144600EB81010B6BD6
S21440538023F47F430B630A6B42EA04220A6300203D
S2144053905DF8044B70474FF0FF30704710B400EB99
S2144053A08101086B80B208630C6B44EA036343EAEE
S2144053B002430B635DF8044B7047436913F0020FDA
S2144053C002D0C1610020704701207047436913F046
S2144053D0010F03D083690B7000207047012070478F
S2144053E010B40B01934214D9C9004B0803EBC20218
S2144053F0B2FBF1F2D3085C1E4FF6FE718C4201D927
S214405400012017E0416841F4002141600CE0012092
S21440541010E0590801EBC202B2FBF3F2D3085C1E5F
S2144054204FF6FE718C42F2D8120402F4E0221A4380
S214405430026200205DF8044B70470000084BC0F83D
S214405440E43000234360436283628823036024235E
S21440545003604FF4807303604FF40023036070478B
S2144054600041535570B505460C4616460F4B9847B7
S21440547000220F4B1A60A4B13246216828460D4BD5
S2144054809847024678B96368A1680B4321690B4385
S214405490E1680B4306490B6069680B436B60104636
S2144054A070BD0122FBE70122F9E700BF3D544000F2
S2144054B0D8C34020E1534000402303607047102388
S2144054C003607047436913F0020F04D0C1F308012C
S2144054D0C1610020704701207047436913F0010FF7
S2144054E005D08369C3F308030B6000207047012092
S2144054F07047FEE700B583B0254B264A9A4210D047
S214405500254B234A9A420CD2013B9B1A23F00303B5
S214405510043313441F4951F8040B42F8040B9A42D3
S214405520F9D11E4B1E4A9A420AD2013B9B1A23F0DF
S214405530030304331344002142F8041B9342FBD177
S214405540184A194B23F07F039360EFF31083B3FAA6
S21440555083F35B09019372B6BFF35F8F0022134B50
S2144055601A700199124A136843F470031360BFF32C
S2144055704F8FBFF36F8F29B101220C4B1A70BFF3C8
S2144055805F8F62B60B4B98470B4B9847FEE700BFC2
S2144055900000402074D84000D809402060CB40200E
S2144055A0D809402000ED00E00000400018004020F0
S2144055B088ED00E0CD614000B56040003B4B1B6B82
S2144055C003F00303012B1DD083B1022B36D0374B9B
S2144055D01B6B03F07003702B5FD0344B1A6B34494F
S2144055E0C2F302120B68D3400B607047314B5B69C5
S2144055F013F0800F14BF4FF400424FF4FA422C4B86
S2144056001A60E4E7294B1B6A13F0807F03D02A4ACE
S214405610274B1A60DBE7294A254B1A60234B1B6A47
S21440562003F07003102B05D0202BD0D1224A204BFC
S2144056301A60CCE7224A1E4B1A60C8E71B4B1B6A0F
S21440564013F0807F16D01C4A194B1A60174B1B6B01
S21440565003F00303022BBAD1144A916A926A1448A3
S214405660C1F30A41036801FB0333D2B2B3FBF2F342
S2144056700360ACE7114A0E4B1A600C4B1B6A03F0F2
S2144056807003102B05D0202BE0D10B4A084B1A6034
S214405690DCE70B4A064B1A60D8E7054A1368094907
S2144056A0A1FB03135B081360704700BF00060E4063
S2144056B01C00402010180E40001BB70000093D009B
S2144056C000127A00ABAAAAAA124B984211D9124BE2
S2144056D0984213D9114B984214D9114B984215D978
S2144056E0104B984294BF4FF004220F4A0F4B1A605B
S2144056F070474FF080620D4B1A6070470C4A0B4B58
S2144057001A6070470B4A094B1A6070470A4A074BA3
S2144057101A607047FF2C3101FF596202FF869303DF
S214405720FFB3C404FFE0F50500050004000C0E407E
S2144057300001000400020004000300040A4B1B683A
S21440574053B1094B1B681A180849914208DB1046AA
S214405750054A106018467047054A034B1A60F0E742
S2144057604FF0FF30704700BFDCC34020FCFF4520B1
S21440577060ED40204FF0FF3070474FF400534B60D1
S21440578000207047012070470020704710B582B057
S214405790074B19600B0E0193C1F307430093C1F307
S2144057A00723CAB201460348034CA04702B010BDC7
S2144057B05CC94020F4D240001D62400080B58AB0EB
S2144057C0002204210A201D4B98471D4B18601D4C93
S2144057D020461D4B984704A81C4B984704A92046D2
S2144057E01B4B9847636823F08F0363600623194A70
S2144057F000212046184DA84701A8184B9847002579
S2144058008DF8055001AA29462046154B98476566EF
S2144058104FF40073E36602A8124B984702A920464D
S214405820114B984701236361274602264FF47A6559
S2144058300E4C3E602846A047FBE700BF690B400081
S21440584030CB402000C0034049044000790240006D
S214405850C902400071584000C9034000A9024000F8
S21440586035024000B302400065024000F11540009A
S21440587010B582B00B4B00225A669B6E652101FB29
S21440588003F1094BA3FB0103C91A03EB5103DB0ADF
S21440589002A941F8043D134604480068044CA0475A
S2144058A002B010BD00C003400101100030CB4020C4
S2144058B0250D40006C4B93F90030834200D0704772
